:100000000C94A9010C94CF010C94CF010C94CF0156
:100010000C94CF010C94CF010C94CF010C94CF0120
:100020000C94CF010C94CF010C947D210C94CF0142
:100030000C94CF010C94CF010C94CF010C94CF0100
:100040000C94CF010C94CF010C94CF010C94CF01F0
:100050000C94CF010C94CF010C94CF010C94CF01E0
:100060000C94CF010C94230F0C94610F0C949F0FF0
:100070000C94CF010C94CF010C94CF010C94CF01C0
:100080000C94B01E0C94CF010C94CF010C94CF01B2
:100090000C94CF010C94CF010C94CF010C94CF01A0
:1000A0000C94CF010C94CF010C94CF010C94CF0190
:1000B0000C94CF010C94CF010C94CF010C94CF0180
:1000C0000C94CF010C94CF010C94CF010C94CF0170
:1000D0000C94CF010C94CF010C94CF010C94CF0160
:1000E0000C94CF010C94CF010C94CF010C94CF0150
:1000F0000C94CF010C94CF010C94CF010C94CF0140
:100100000C94CF010C94CF010C94CF010C94CF012F
:100110000C94CF010C94CF010C94CF010C94CF011F
:100120000C94CF010C94CF010C94CF010C94CF010F
:100130000C94CF010C9446030C94CF010C94CF0186
:100140000C94CF010C94CF010C94CF010C94CF01EF
:100150000C94CF010C94CD210C94CF010C94CF01C1
:100160000C94CF010C94CF010C94CF010C94CF01CF
:100170000C94CF010C94CF010C94CF010C94CF01BF
:100180000C94CF010C94CF010C94CF010C94CF01AF
:100190000C94CF010C94CF010C94CF010C94CF019F
:1001A0000C94CF010C94CF010C94CF010C94CF018F
:1001B0000C94CF010C94CF010C94CF010C94CF017F
:1001C0000C94CF010C94CF010C94CF010C94CF016F
:1001D0000C94CF010C94CF010C94CF010C94CF015F
:1001E0000C94CF010C94CF010C94CF010C94CF014F
:1001F0000C94CF01004142434445464748313233D5
:10020000343536F1F22423717273747576777891F0
:1002100092939495969798858687882128272526F6
:1002200017212641435152E3E4436F415020627548
:10023000696C64206661696C6564210056616C7547
:10024000652025752E00446973742025750A0041C8
:1002500075746F207665726CE473737420506172EC
:100260006B706C61747A2E2E0A004175746F206772
:10027000657061726B742E0A00446F6368206B6551
:10028000696E204175746F2E2E3F0A004B65696EB2
:1002900020466168727A6575672067657061726B68
:1002A00074202D20737065727265205061726B70BE
:1002B0006C61747A2E2E0A005061726B706C6174DE
:1002C0007A20697374206265666168726261722E59
:1002D0000A005061726B706C61747A20616E6765A0
:1002E000666F72646572742E0A00466168727A6580
:1002F000756720696D20576567212053656E6B65B2
:10030000205370657272652E0A00537065727265B3
:100310002069737420484F43482E0A005370657259
:10032000726520686F63682E2E0A005061726B7AC6
:1003300065697420766F6E20256C75206269732064
:10034000256C75206675657220494420256C752ED4
:10035000000011241FBECFEFDFE3DEBFCDBF00E002
:100360000CBF18BE19BE1ABE1BBE18E2A0E0B0E258
:10037000EAE2F8E500E00BBF02C007900D92A03260
:10038000B107D9F71BBE1AE2A0E2B8E201C01D9284
:10039000A434B107E1F70E9409020C94132C0C94C9
:1003A000000081E00E94E80708950E943E0981E074
:1003B0000E94170287E0E0EAF0E0828378940E94CE
:1003C00012060E94300380910A2A90910B2A0E9403
:1003D000DD0F0E9457200E94362180910C2A9091B7
:1003E0000D2A0E9454130E94AC1D80E098E00E94E8
:1003F00007210E946E220E94F2250E946D258AE04C
:1004000090E061E041ED51E020E030E00E94E9043D
:1004100008951F930E94D50111E08CE00E94E80727
:10042000882311F01093112A0E94F503F6CF982F1C
:100430008091510080FD09C08091500081608093BF
:1004400050008091510080FFFCCF08ED04BFE0E434
:10045000F0E010924000992319F09130F9F407C0B0
:1004600085E08093500008ED04BF1182089508EDE7
:1004700004BF11828091500086608093500080916B
:10048000510081FFFCCF8091510082FFF8CF81E0C5
:100490008093600008ED04BF80934000089540E21F
:1004A00053E009C020EA30E0FA013197F1F721501A
:1004B0003040D1F7409781319105A0F783FF04C008
:1004C000E0E0FAEF3197F1F782FF04C0E0E0FDE7EA
:1004D0003197F1F781FF04C0E0E8FEE33197F1F7CF
:1004E00080FF04C080E49FE10197F1F708951F9316
:1004F000CF93DF93AC0170E06F5F7F4FEB01D59539
:10050000C7956150704010E00EC0FB01E21BF30B79
:100510003197E40FF51F9081DA01A20FB31F8C9180
:1005200080839C931F5F212F30E02C173D076CF3D5
:10053000DF91CF911F9108950F931F93CF93DF9376
:10054000EC01162F20E030E040E050E01CC00881B4
:100550001150802F80538A30C0F4CA01B9012AE0BB
:1005600030E040E050E00E945E289B01AC01802F0B
:1005700090E0C097AA2797FDA095BA2F280F391FA2
:100580004A1F5B1F2196112311F7B901CA01DF91A0
:10059000CF911F910F9108950E94F503482F50E0CD
:1005A00020912028309121282417350728F4109213
:1005B00020281092212808C0882331F0241B350BF5
:1005C0002093202830932128809120289091212861
:1005D00008950F931F938C010E94F5030093202828
:1005E000109321281F910F910895CF93DF93EC0171
:1005F0000E943F038823A1F00E94F503C0932028A6
:10060000D09321280E94CC02892BE1F726C080EAF2
:1006100090E0F9013197F1F70197D9F7609702C09F
:1006200020E233E0C131D10590F7C3FF04C080E080
:100630009AEF0197F1F7C2FF04C080E09DE70197B0
:10064000F1F7C1FF04C080E89EE30197F1F7C0FF16
:1006500004C080E49FE10197F1F7DF91CF91089505
:10066000E0E0F9E011828681836086838CE786A3CF
:1006700017A286E0808381E08093322808958091DC
:1006800032280895BC0180E090E008951F920F92F7
:100690000FB60F9208B60F9209B60F920BB60F92D3
:1006A000112418BE19BE1BBE2F933F938F939F93A7
:1006B000AF93BF93EF93FF93809131288F5F809327
:1006C00031288150823061F0833028F4882341F052
:1006D0008130D9F505C0833019F08430B1F51AC0E6
:1006E000E0E0F9E08CE786AB17AA8091332890917F
:1006F0003428A0913528B091362884589F4FAF4FA9
:10070000BF4F8093332890933428A0933528B0931B
:1007100036281BC0E0E0F9E08CE786AB17AA809191
:10072000332890913428A0913528B09136288458E8
:100730009F4FAF4FBF4F8093332890933428A0939F
:100740003528B093362810923128809126288F5F63
:100750008093262880912628882359F090912B2871
:10076000E7E3F8E289E0989F900111242E0F3F1FE4
:100770001DC08091222890912328A0912428B09117
:10078000252880509F4FAF4FBF4F809322289093D2
:100790002328A0932428B0932528E0CF808191813D
:1007A000009719F00197808391833996E217F30738
:1007B000A9F7FF91EF91BF91AF919F918F913F91D9
:1007C0002F910F900BBE0F9009BE0F9008BE0F9097
:1007D0000FBE0F901F90189560912C2870912D28B6
:1007E00080912E2890912F280895AF92BF92CF929A
:1007F000DF92EF92FF920F931F93CF93DF9390912D
:1008000030289B3008F040C09F5F90933028915073
:10081000809126288823B1F16FB7F894C0902628DC
:10082000109226282C2D30E040E050E080912228C4
:1008300090912328A0912428B0912528820F931FFE
:10084000A41FB51F8093222890932328A0932428C7
:10085000B09325286FBF80912C2890912D28A091CE
:100860002E28B0912F28820F931FA41FB51F8093AD
:100870002C2890932D28A0932E28B0932F28D09029
:100880002B288EC09093302820E030E093C0DA947B
:100890004D2D50E0FA01A3E0EE0FFF1FAA95E1F7FE
:1008A000E40FF51FDF01A95CB74D8D919C91119765
:1008B000892B09F075C0E15CF74D808180FD70C027
:1008C0001496ED90FC9015971696AD90BC901797E6
:1008D00012968D919C911397009719F08D939C938C
:1008E00016C020912B28822F90E0FC0173E0EE0FC0
:1008F000FF1F7A95E1F7E80FF91FE95CF74D89E0F2
:1009000001900D928150E1F7215020932B28CA01CC
:1009100063E0880F991F6A95E1F7840F951F8C019A
:10092000015C174DF801208121602083EC01C95C36
:10093000D74D8E819F81F70119958C819D818E15F0
:100940009F0541F48E819F818A159B0519F4F8015A
:10095000808121C040912B2821C04150842F90E0FC
:100960009C0153E0220F331F5A95E1F7280F391FDE
:10097000F901E95CF74D848195818E159F0571F42D
:10098000868197818A159B0549F4F901E15CF74D51
:10099000808180FF03C08E7F808302C04423E9F6FC
:1009A000DD2009F074CF8091302881508093302869
:1009B0002C2D30E0C901DF91CF911F910F91FF9055
:1009C000EF90DF90CF90BF90AF90089580912B284B
:1009D00008950F931F93CF93DF93EC01890120912A
:1009E0002B28EBE3F8E270E00CC080819181841742
:1009F000950729F4828193818017910721F07F5F09
:100A00003996721790F3793198F5872F90E0FC01B1
:100A100033E0EE0FFF1F3A95E1F7E80FF91FE95CAD
:100A2000F74DC083D183662311F4C0E0D0E0FC0110
:100A3000B3E0EE0FFF1FBA95E1F7E80FF91FDF01F2
:100A4000A95CB74D1296CD93DC93139714964D93F2
:100A50005C931597E15CF74D80818E7F80831696BD
:100A60000D931C931797271719F42F5F20932B28AA
:100A7000DF91CF911F910F910895AC0130912B28F8
:100A8000009779F510922B2808952150822F90E03D
:100A9000FC01A3E0EE0FFF1FAA95E1F7E80FF91F95
:100AA000E95CF74D8481958184179507D9F4868197
:100AB000978186179707B1F4832F815080932B2855
:100AC00090E0DC0143E0AA0FBB1F4A95E1F7A80FB5
:100AD000B91FA95CB74D89E00D9001928150E1F7F3
:100AE0000895232F222389F608950E94F5032FB736
:100AF000F8948091222890912328A0912428B091E5
:100B000025288093272890932828A0932928B093FC
:100B10002A282FBF08950E94F5038FB7F8948FBF3E
:100B20002091222830912328409124285091252873
:100B30008091272890912828A0912928B0912A28CF
:100B4000281B390B4A0B5B0BB901CA010895809130
:100B50002628209122283091232840912428509142
:100B60002528280F311D411D511DB901CA010895C5
:100B70008FB7F894909126288FBF2091222830912A
:100B800023284091242850912528290F311D411DEB
:100B9000511DB901CA010895F894E0E0F9E080A17F
:100BA00061A17894362F20E090E0282B392B40E08B
:100BB00050E08091332890913428A0913528B0914D
:100BC0003628280F391F4A1F5B1FB901CA01089533
:100BD000E0E0F9E080A161A1362F20E090E0282B31
:100BE000392B40E050E08091332890913428A09137
:100BF0003528B0913628280F391F4A1F5B1FB901CD
:100C0000CA01089520E137E240E050E00E945E28EA
:100C100022EE34E040E050E00E949128CA01B90180
:100C2000089508958FE0E0EEF6E084838FEF8093DF
:100C3000E0068093200780EF80930007E0E4F4E073
:100C40008DE0809340048AE0818388EB91E0848387
:100C5000958388E59BE1868397838FEB80878187E7
:100C60008CE3848F158E168E178E8BE3848F809184
:100C70005D0487FFFCCF88EC90E00E94F50290E8CD
:100C80002AEA9150E92FF0E0892F8227E050F04CBA
:100C900080839923B1F789E190E00E94F50290E802
:100CA0002AEA9150E92FF0E0892F8227E050F04C9A
:100CB00080839923B1F789E190E00E94F50290E8E2
:100CC0002AEA9150E92FF0E0892F8227E050F04C7A
:100CD00080839923B1F789E190E00E94F5028AE0D0
:100CE00090E061E041E156E020E030E00E94E9045C
:100CF000E0E0F0E48EE490E78E1B9F0B02C01192BF
:100D000001970097E1F781E00895EF92FF920F932A
:100D10001F93E0E0F1E0A1E1A2A313A204A315A2B6
:100D200016A260A7E72EF82E092F1127E1A6BC0115
:100D30008827992762A724A7BB27A52F942F832F45
:100D400085A79A014427552726A78091200180680E
:100D500080A380912001806180A380910401827230
:100D6000E1F71F910F91FF90EF9008950023A1F0FC
:100D7000F894CF93DF930AB61BB68ABF4BBFEB0143
:100D8000F901999191930A95E1F70ABE1BBE1124CE
:100D9000DF91CF91789408950023A1F0F894CF9338
:100DA000DF930AB61BB68ABF4BBFEB01F9019991DD
:100DB00091930A95E1F70ABE1BBE1124DF91CF91F2
:100DC000789408950F931F93E0E80138110500F11E
:100DD000F894CF93DF930AB61BB68ABF4BBFEB01E3
:100DE000F90199919193EA95E1F70ABE1BBE11248E
:100DF000DF91CF917894089500581040F9F0605831
:100E00007F4F8F4F9F4F20583F4F4F4F5F4FDDCF4A
:100E10000023A1F0F894CF93DF930AB61BB68ABFE4
:100E20004BBFEB01F901999191930A95E1F70ABE45
:100E30001BBE1124DF91CF91789408951F910F91DB
:100E40000895442359F0F8940BB68BBFFB0111248D
:100E500011924A95E1F70BBE7894089520E8413845
:100E6000510598F0F8940BB68BBFFB011124119239
:100E70002A95E1F70BBE789408954058504091F0C0
:100E800060587F4F8F4F9F4FEACF442359F0F8941B
:100E90000BB68BBFFB01112411924A95E1F70BBEF3
:100EA0007894089508951F93CF93DF93182FFB0133
:100EB000DA01E901982F91509E3F10F010E01FC019
:100EC000892F82958F70282F30E0205D3F4F85E07D
:100ED000220F331F8A95E1F76115710511F0208308
:100EE0003183109741F0205F3F4F892F8F70280F7B
:100EF000311D2D933C93209711F09F709883812F83
:100F0000DF91CF911F910895982F8091092A98170A
:100F1000C8F48091082A813019F0823099F408C011
:100F2000E091062AF091072AE90FF11D849107C08C
:100F3000E091062AF091072AE90FF11D80810E94B5
:100F40005307089580E00895DF93CF9300D0CDB785
:100F5000DEB7BE016E5F7F4F40E050E09E012F5F25
:100F60003F4F0E948407882359F0EA81FB8181E08A
:100F700090E0098002C0880F991F0A94E2F78583E8
:100F80002396CDBFDEBFCF91DF910895DF93CF933E
:100F900000D0CDB7DEB7BE016E5F7F4F40E050E0BE
:100FA0009E012F5F3F4F0E948407882359F0EA81FA
:100FB000FB8181E090E0098002C0880F991F0A94AC
:100FC000E2F786832396CDBFDEBFCF91DF910895F0
:100FD000DF93CF9300D0CDB7DEB7BE016E5F7F4FFA
:100FE00040E050E09E012F5F3F4F0E94840788231E
:100FF00059F0EA81FB81808590E0098002C09595D7
:1010000087950A94E2F781702396CDBFDEBFCF911A
:10101000DF910895DF93CF9300D0CDB7DEB7BE0147
:101020006E5F7F4F40E050E09E012F5F3F4F0E9478
:101030008407882359F0EA81FB8181E090E00980F0
:1010400002C0880F991F0A94E2F781832396CDBFCF
:10105000DEBFCF91DF910895DF93CF9300D0CDB75E
:10106000DEB7BE016E5F7F4F40E050E09E012F5F14
:101070003F4F0E948407882359F0EA81FB8181E079
:1010800090E0098002C0880F991F0A94E2F78283DA
:101090002396CDBFDEBFCF91DF9108951F93DF93DD
:1010A000CF930F920F92CDB7DEB7162F60E070E0AE
:1010B000AE014F5F5F4F20E030E00E94840788233D
:1010C00031F0E981FA818081877C812B80830F90C8
:1010D0000F90CF91DF911F9108951F93DF93CF93CE
:1010E0000F920F92CDB7DEB7162F60E070E0AE0121
:1010F0004F5F5F4F20E030E00E948407882351F06B
:10110000E981FA81112319F08081806402C0808115
:101110008F7B80830F900F90CF91DF911F91089567
:101120001F93DF93CF930F920F92CDB7DEB7162F99
:1011300060E070E0AE014F5F5F4F20E030E00E9462
:101140008407882351F0E981FA81112319F0808105
:10115000806802C080818F7780830F900F90CF913D
:10116000DF911F91089560E070E040E050E020E0E2
:1011700030E00E9484070895682F8DEF9FEFA1E073
:10118000B0E00BB6ABBFFC0127910BBE8EEF9FEF1B
:10119000A1E0B0E00BB6ABBFFC0187910BBE809520
:1011A000281711F4822F089584EF91E0A2E0B0E0B7
:1011B0000BB6ABBFFC0157910BBE85EF91E0A2E0EF
:1011C000B0E00BB6ABBFFC0147910BBE942F80E0A3
:1011D000252F30E0282B392B84E22131380751F0BC
:1011E0002F5F3F4F39F04095541711F4852F089524
:1011F0008FEF0895862F0895EF92FF920F931F931C
:10120000DF93CF930F920F92CDB7DEB781E080933B
:10121000082A84EF91E08093062A9093072A8CE2B3
:101220008093092A80EA98E080930A2A90930B2AF7
:1012300000E212E07E010894E11CF11CF8018081BB
:1012400060E070E0A70120E030E00E94840788237E
:1012500031F0E981FA818081877C806180830F5F32
:101260001F4FF2E009321F0749F70F900F90CF91FF
:10127000DF911F910F91FF90EF9008950E94FC085D
:1012800081E061E00E946D0881E00E940A0882E02E
:1012900061E00E946D0882E00E940A0883E061E03C
:1012A0000E946D0883E00E940A0884E061E00E94C9
:1012B0006D0884E00E940A0885E061E00E946D08E4
:1012C00085E00E940A0886E061E00E946D0886E0E1
:1012D0000E940A0887E061E00E946D0887E00E9492
:1012E0000A0888E061E00E946D0888E00E940A0810
:1012F00089E068E10E944E0889E061E00E946D0883
:101300008AE068E10E944E088AE061E00E946D0870
:101310008BE068E10E944E088BE061E00E946D085E
:101320008CE068E10E944E088CE061E00E946D084C
:101330008DE068E10E944E088DE061E00E946D083A
:101340008EE068E10E944E088EE061E00E946D0828
:101350008FE068E10E944E088FE061E00E946D0816
:1013600080E168E10E944E0880E161E00E946D0822
:1013700082E10E942C0882E168E10E944E0881E12E
:101380000E940A0881E10E94A40783E10E94A40749
:1013900083E10E940A0884E10E94A40784E10E947C
:1013A0000A0885E10E94A40785E10E940A0886E1F7
:1013B0000E94A40786E10E940A0887E10E94C607EE
:1013C00087E10E940A0888E10E94C60788E10E941E
:1013D0000A0889E10E94C60789E10E940A088AE199
:1013E0000E94C6078AE10E940A088BE10E940A084F
:1013F0008CE10E940A088DE10E940A088EE10E9499
:101400000A088FE10E940A0880E20E940A0881E22D
:101410000E940A0882E20E940A0883E20E940A08E7
:1014200084E20E940A0885E20E940A0886E20E947D
:101430000A0887E20E940A0889E20E940A088AE2F2
:101440000E940A088BE20E940A0808956D30710517
:1014500018F4E0E0F0E00EC0FC010A968087918766
:101460001082118212821382148215826A50704097
:1014700066837783CF010895FC0184819581681785
:10148000790710F080E0089580819181860F971F81
:10149000268137818217930710F0821B930B0084FB
:1014A000F185E02DE80FF91F80810895FC01611599
:1014B0007105C9F02481358162177307A0F480811A
:1014C0009181860F971F80839183261B370B24837E
:1014D0003583268137818217930758F0821B930B3F
:1014E0008083918308958281938180839183148284
:1014F00015820895DC0114962D913C91159716964E
:101500008D919C9117972817390710F080E0089566
:1015100012962D913C9113971896ED91FC91199785
:10152000E20FF31F60832F5F3F4F12962D933C9382
:10153000139714968D919C911597019614968D93FF
:101540009C93159716968D919C911797281739079C
:1015500010F481E0089512961D921C92139781E079
:1015600008951F93DC0114968D919C911597892BFA
:1015700011F410E013C08D919C91119716962D9146
:101580003C9117978217930710F0821B930B1896C4
:10159000ED91FC911997E80FF91F1081CD0161E0E1
:1015A00070E00E94560A812F1F910895FC018481EA
:1015B00095810895FC01F8948481958168177907D5
:1015C00098F480819181860F971F26813781821739
:1015D000930710F0821B930B0084F185E02DE80F38
:1015E000F91F808178940895789480E00895FC0133
:1015F000F89461157105C9F024813581621773076C
:10160000A0F480819181860F971F80839183261B90
:10161000370B24833583268137818217930758F04F
:10162000821B930B8083918306C0108211821282E9
:1016300013821482158278940895DC01F89414962C
:101640002D913C91159716968D919C91179728177F
:10165000390740F512962D913C9113971896ED910C
:10166000FC911997E20FF31F60832F5F3F4F129693
:101670002D933C93139714968D919C9115970196F9
:1016800014968D939C93159716968D919C91179710
:101690002817390720F012961D921C921397789400
:1016A00081E00895789480E00895FF920F931F934E
:1016B0008C0160E070E00E94DA0AF82EC80161E057
:1016C00070E00E94F70A8F2D1F910F91FF900895EF
:1016D000FC01F8947894848195810895EF92FF92AB
:1016E0000F931F93CF93DF938C017B01B901FC0112
:1016F000368520E014C0822F90E0FC01EE0FFF1F22
:10170000E80FF91FDF01AA0FBB1FA00FB11F1F9623
:101710008D919C91509784179507D9F02F5F2317CF
:1017200050F320E024C0822F90E0FC01EE0FFF1F59
:10173000E80FF91FDF01AA0FBB1FA00FB11FED01BA
:101740002F961F968D919C915097892B79F4488301
:1017500059833196EE0FFF1FE00FF11F6787708BE3
:101760005396ED92FC92549781E004C02F5F2317AB
:10177000D0F280E0DF91CF911F910F91FF90EF9019
:101780000895DF92EF92FF920F931F93CF93DF9311
:101790008C01E62ED42EC1E0D0E0062E02C0CC0F84
:1017A000DD1F0A94E2F7FF2423C08F2D90E09C01F7
:1017B000220F331F280F391FF9013196EE0FFF1F3B
:1017C000E00FF11F878590898C239D23892B79F069
:1017D000F901EE0FFF1FE00FF11F27853089838984
:1017E00094896E2D4D2DF9011995882329F0F394D4
:1017F000F8018685F816C8F2DF91CF911F910F91FD
:10180000FF90EF90DF900895BF92CF92DF92EF921A
:10181000FF920F931F93CF93DF93EC01E62EB42E2C
:10182000690101E010E0062E02C0000F111F0A94AA
:10183000E2F720E0FF2435C08F2D90E0222309F14C
:101840009C01220F331F280F391FF9013196EE0F2B
:10185000FF1FEC0FFD1F8785908980239123892B23
:10186000F1F0F901EE0FFF1FEC0FFD1F2785308906
:10187000838994896E2D4B2DF9011995882379F46C
:1018800013C0FC01EE0FFF1FE80FF91FEE0FFF1F43
:10189000EC0FFD1F878590898C159D0509F421E0CB
:1018A000F3948E85F81640F2DF91CF911F910F913E
:1018B000FF90EF90DF90CF90BF900895FC01F894D7
:1018C0008185882319F08085861739F460878185A2
:1018D0008F5F8187789481E00895789480E00895FF
:1018E000FC01F8948085861731F4818581508187C9
:1018F000882309F410867894089520E0FC018085FF
:10190000861709F421E0822F08950F931F938C010D
:101910009A01AB0160E079E08DE390E00E949128AC
:10192000F894D801ED91FC9184818B7F848384812C
:1019300082FD02C036952795C9010197868397835A
:1019400078941F910F910895DC01F894ED91FC912A
:1019500011978481877E8483ED91FC911197138286
:1019600015961C927894089520E0FC0185818230C0
:1019700008F021E0822F0895EF92FF920F931F93BA
:101980007B018C0160E070E0CB01BA0124E630E01D
:1019900040E050E00E945E28A80197010E94912833
:1019A0002B5F3F4F4F4F5F4FCA01B9012AE030E034
:1019B00040E050E00E949128C9011F910F91FF90D3
:1019C000EF900895EF92FF920F931F93CF93DF93C1
:1019D000EC017A018B018A819B8160E070E00E94BA
:1019E000F70A60E079E08DE390E0A80197010E949A
:1019F00091281F8218861986F894E881F9818481DC
:101A0000877E848384818B7F848385818F738583A4
:101A1000848182FD02C036952795C901019786838E
:101A200097838581887F8360858384E18383848134
:101A30008861848381E08D837894DF91CF911F91B9
:101A40000F91FF90EF900895EF92FF920F931F93E5
:101A5000CF93DF937C01042FEB0111E00DC0FE0159
:101A60002196E491D70112968D919C9113976E2F38
:101A70000E941D0B18230150002389F7D701ED9117
:101A8000FC91838181608383812FDF91CF911F91AE
:101A90000F91FF90EF900895EF92FF920F931F9395
:101AA000CF93DF937C01042FEB0111E00AC0699111
:101AB000D70112968D919C9113970E941D0B1823AC
:101AC00001500023A1F7D701ED91FC918381816042
:101AD0008383812FDF91CF911F910F91FF90EF9022
:101AE00008950F931F938C01DC0112968D919C91A8
:101AF00013970E941D0BD801ED91FC919381916089
:101B000093831F910F9108950F931F93CF93DF93AA
:101B1000EC01062F0097B9F11FEF06C0115099F1A3
:101B200081E090E00E94F502EA81FB818481958149
:101B3000892BA1F71C8188E08C83109218298A8157
:101B40009B81602F0E941D0BE881F9818381816058
:101B500083832AE040E45FE105C0215039F0CA01E7
:101B60000197F1F7809118298823B9F31C8380919C
:101B70001829882341F08091192990E0081391E0F9
:101B800081E0982701C090E0892FDF91CF911F91CC
:101B90000F910895CF92DF92EF92FF920F931F93D0
:101BA000DF93CF93CDB7DEB72A97CDBFDEBF7C01E1
:101BB0009B0110E06E010894C11CD11CF601E10FDD
:101BC000F11DC9016AE070E00E947D2880831F5FDB
:101BD000C9016AE070E00E947D289B0161157105D2
:101BE00069F701E06E010894C11CD11C14C01150AA
:101BF000F601E10FF11D6081605DD70112968D91B4
:101C00009C9113970E941D0BD701ED91FC9193813C
:101C1000916093830823112351F7802F2A96CDBF1B
:101C2000DEBFCF91DF911F910F91FF90EF90DF907A
:101C3000CF9008950F931F938C01DC0112968D9124
:101C40009C9113970E947A0AD801ED91FC918381AF
:101C50008160838381E01F910F910895CF93DF937B
:101C6000EC0181E08D83CE0162E040E00E94C10B77
:101C70008C81867029F0E881F98184818061848378
:101C80008C8182FF08C081E08F830E94E8056A870B
:101C90007B878C879D87DF91CF9108950F931F934A
:101CA000CF93DF93EC01E881F981018110818C8170
:101CB00083FF06C00093182910931929877F8C830E
:101CC0008C81982F80FF14C08F81882389F08A81AE
:101CD0009B8160E070E00E943C0A9F8191509F834D
:101CE0008117D9F0CE0165E0412F0E94C10B15C0CC
:101CF00092FF13C08F81882381F00E94E8052A8516
:101D00003B854C855D85621B730B840B950B6F3196
:101D100071058105910558F01F8204FF03C0CE01B3
:101D200066E002C0CE0161E0412F0E94C10BDF914D
:101D3000CF911F910F910895CF93DF93EC01EA812A
:101D4000FB8184819581892B21F182E08D838C81B7
:101D500090E080FF0AC06F81CF0170E00E943C0AD2
:101D6000982F8F818F5F8F8310C086709070892B22
:101D700041F0E881F98184818F7E84838A819B810F
:101D800001C0CF010E94B10A982FE881F9819083A8
:101D90000AC08D81823011F483E08D83E881F9815E
:101DA00083818C7F8383DF91CF9108959F92AF923F
:101DB000BF92CF92DF92EF92FF920F931F93CF9338
:101DC000DF936C01962EB42EA52E253168F1C22F1B
:101DD000D0E0842F952F9C01F901CE01119201973B
:101DE000E9F7F801C70102C0119201970097E1F7E6
:101DF000C801B7010E94260AAC010097A9F02B2D5B
:101E00003A2DC901FC01C082D182428353831086DE
:101E100011869482CE010F9766E070E00E947D28C3
:101E200066871682158202C0E0E0F0E0CF01DF9104
:101E3000CF911F910F91FF90EF90DF90CF90BF90C7
:101E4000AF909F9008951F920F920FB60F9208B611
:101E50000F9209B60F920BB60F92112418BE19BE3D
:101E60001BBE2F933F934F935F936F937F938F93FB
:101E70009F93AF93BF93EF93FF9380910A2A909122
:101E80000B2A805A984031F480910C2A90910D2AA7
:101E90000E944E0EFF91EF91BF91AF919F918F9154
:101EA0007F916F915F914F913F912F910F900BBE5A
:101EB0000F9009BE0F9008BE0F900FBE0F901F909D
:101EC00018951F920F920FB60F9208B60F9209B68F
:101ED0000F920BB60F92112418BE19BE1BBE2F9382
:101EE0003F934F935F936F937F938F939F93AF93A2
:101EF000BF93EF93FF9380910A2A90910B2A805A07
:101F0000984031F480910C2A90910D2A0E949C0EE9
:101F1000FF91EF91BF91AF919F918F917F916F91C1
:101F20005F914F913F912F910F900BBE0F9009BE83
:101F30000F9008BE0F900FBE0F901F9018951F9224
:101F40000F920FB60F9208B60F9209B60F920BB60A
:101F50000F92112418BE19BE1BBE2F933F934F93AF
:101F60005F936F937F938F939F93AF93BF93EF9301
:101F7000FF9380910A2A90910B2A805A984031F45D
:101F800080910C2A90910D2A0E942E0EFF91EF91C4
:101F9000BF91AF919F918F917F916F915F914F9181
:101FA0003F912F910F900BBE0F9009BE0F9008BE6E
:101FB0000F900FBE0F901F901895EF92FF920F9306
:101FC0001F9360E040E850E42EE20EEA10E430EDAA
:101FD000E32E37E0F32E0E94D60E80930C2A9093C6
:101FE0000D2A40E051EE60E070E020E00E94E20C3B
:101FF0001F910F91FF90EF900895FC0190E0808178
:102000008F5F8083882321F49F5F31969630B9F7E4
:1020100008952F923F924F925F926F927F928F928C
:102020009F92AF92BF92CF92DF92EF92FF920F9367
:102030001F93DF93CF93CDB7DEB76A97CDBFDEBFD7
:102040002C01FB012DB73EB72F8B388F3089398F8C
:1020500081898A8FA288B388C5014C96ADB7BEB777
:10206000A81BB90BADBFBEBF2DB73EB72F5F3F4F0B
:102070002D8B3E8BEDB6FEB683E090E0E80EF91EA8
:10208000DE01119684E101900D928150E1F780917B
:10209000122A9091132AA091142AB091152A8D83A7
:1020A0009E83AF83B8878E010B5F1F4FC80164E02A
:1020B0000E9477021E010894211C311CC10164E0BA
:1020C0000E947702CE01099662E00E947702CE015B
:1020D0000B9662E00E947702F7014101910104C072
:1020E000D4018D914D01819380169106C9F794E03A
:1020F000C92ED12CCE0CDF1CD701F401285F3F4F35
:1021000004C0819113968C9313971196E217F307ED
:10211000C1F786010C5F1F4F8D8581FF0AC08E8538
:102120009F85892B31F482E00E94A4078D858D7FE5
:102130008D878D85F6018483D8011196982F80FFB5
:1021400004C08889F8018183119691FD07C0AD0113
:10215000898D9A8D9C01B901950158C04E855F8586
:10216000BD0126E030E006C0FA018191AF01FB011C
:102170008193BF0121503040FFEF2F3F3F07A1F770
:1021800086E0682E712C6A0E7B1E6D01898D9A8DFA
:102190009C01790185012FEF3FEF0FC0D7016C91B2
:1021A000C90170E00E9483139C01F70181917F01B6
:1021B000D60115968C93015010400894C11CD11C77
:1021C0000115110559F7F301EA0DFB1DDF013D93E0
:1021D00021837D010894E11CF11CE2E0F0E0AE0EE9
:1021E000BF1E0E851F85C301B501A40191010E9488
:1021F00098138E859F850E94FD0F0EC0FB01819173
:10220000BF01FA018193AF01215030402115310502
:10221000A9F77D01EA0CFB1CCD88DE8887010C192B
:102220001D0902501040D6011C930E5F1F4F802FD6
:10223000825011968C93C20163EF0E94710DEE24BF
:10224000EA94FE2CAA24BB2410C0F6016081C701C9
:1022500070E00E9483137C01C201D6016D916D0173
:102260000E94710D0894A11CB11CA016B10668F360
:10227000C2016F2D0E94710DC2016E2D0E94710D61
:10228000EF89F88DEDBFFEBF6A96CDBFDEBFCF915F
:10229000DF911F910F91FF90EF90DF90CF90BF9053
:1022A000AF909F908F907F906F905F904F903F90F6
:1022B0002F900895FC018785882319F4CF010E948F
:1022C000771C0895AF92BF92CF92DF92EF92FF9268
:1022D0000F931F93DF93CF93CDB7DEB7A897CDBFF2
:1022E000DEBF8C016B016D30710508F4E5C0F801AB
:1022F00080819181A281B38189839A83AB83BC83DE
:10230000CE01019664E00E9477022091122A30915A
:10231000132A4091142A5091152A89819A81AB8100
:10232000BC81281739074A075B0709F0C5C0F801C7
:1023300084819581A681B7818D839E83AF83B88781
:10234000CE01059664E00E947702F80190859D8792
:1023500059E0E52EF12CE00EF11EB60169507040F7
:1023600069F090FF0BC08185888B4AE0E42EF12C48
:10237000E00EF11EB6016A50704001C0188A91FF4C
:1023800093C06730710508F497C0EE86FF8636E08B
:10239000A32EB12CAE0CBF1C2AEFC22E2FEFD22ED3
:1023A000C60ED71EC501B601A8010C5F1F4F9801CC
:1023B00087010E9498134FEF5FEF00E010E009C023
:1023C000F7016581CA0170E00E948313AC010F5FC1
:1023D0001F4F0894E11CF11C0C151D0588F3F50135
:1023E000EC0DFD1D3297319120E0808190E0282B8B
:1023F000392B4217530709F05FC0A98ABA8A8EEFBA
:102400009FEFC80ED91ECB8ADC8A4E855F85CA0134
:10241000DC01E1E3FAE23BC015969C9115978081BF
:10242000981768F58D819E81AF81B8858D8B9E8BC5
:10243000AF8BB88F8B859C858D8F9E8F89859A8574
:102440008F8F98A383E089A38CE29AE28AA39BA34F
:102450008FEF8CA380E090E28DA39EA386E090E0B6
:102460008FA398A780910C2A90910D2ABE016B5ED4
:102470007F4F0E94091081E080931B2A1DC0119795
:102480003197891720F481E080931B2A04C09AE2D7
:10249000EB32F90709F6ACE2BAE2FA0186E0019004
:1024A0000D928150E1F704C0E98AFA8A6B8B7C8B2C
:1024B000CE0101960E945A11A896CDBFDEBFCF91E2
:1024C000DF911F910F91FF90EF90DF90CF90BF9021
:1024D000AF9008954F925F926F927F928F929F92EA
:1024E000AF92BF92CF92DF92EF92FF920F931F9322
:1024F000DF93CF93CDB7DEB74DB65EB680911A2984
:10250000882309F0BEC081E080931A29AEC0809173
:102510000E2A90910F2A60E070E00E94DA0A833F51
:1025200009F09BC025E0C216D10408F48EC080914A
:102530000E2A90910F2A61E070E00E94DA0A182FAB
:1025400080910E2A90910F2A62E070E00E94DA0AD0
:10255000712E6624E82EFF24E628F728C70101978C
:102560008E5E954008F079C08E2D8B5F90E0C81686
:10257000D90608F46AC0CC24CA94DC2C01E010E02F
:1025800063E0A62EB12CAE0CBF1C0BC0B8010E949C
:10259000DA0A682FC60170E00E9483136C010F5F96
:1025A0001F4F80910E2A90910F2A0A151B0570F378
:1025B000B5010E94DA0A182FB7016C5F7F4F809136
:1025C0000E2A90910F2A0E94DA0A912E882490E018
:1025D00088299929C816D90609F03FC0BDB6AEB6FC
:1025E0008DB79EB78E199F098DBF9EBFCDB6DEB643
:1025F0000894C11CD11C00E010E00FC0B8016D5F51
:102600007F4F80910E2A90910F2A0E94DA0AF601DC
:10261000E00FF11F80830F5F1F4F0E151F0570F332
:10262000C601B7010E94621185E090E0E80EF91E34
:1026300080910E2A90910F2AB7010E94F70A8B2DE4
:102640009A2D9C012DBF3EBF10C080911B2988236D
:1026500021F0815080931B2912C080910E2A909105
:102660000F2A61E070E00E94F70A80910E2A909193
:102670000F2A0E94680B6C01009709F048CF109256
:102680001A294DBE5EBECF91DF911F910F91FF9031
:10269000EF90DF90CF90BF90AF909F908F907F9002
:1026A0006F905F904F900895CF93DF93EC018EE78A
:1026B00098E460ED77E00E94260ABC0180930E2A20
:1026C00090930F2A009781F0CE0147E753E122E073
:1026D00030E00E946E0B81E090E061E04AE652E15A
:1026E00020E030E00E94E904DF91CF9108958091CD
:1026F0000E2A90910F2A642F0E947A0A8FE080930D
:102700001B2981E008959C0140E0E1E1F8E8CB015C
:10271000822793273695279580FF02C02E273F27D3
:102720004F5F483019F076956795F1CFC90108954C
:102730004F925F926F927F928F929F92AF92BF92D1
:10274000CF92DF92EF92FF920F931F93CF93DF937D
:102750003C014B015A016901EE24FF24C0ECD0E09A
:1027600090E2492E80E8582E49C0C7018F709070C2
:10277000892BB9F54092C000F50180818A8381815F
:102780008A8382818A8383818A83F60180818A8316
:1027900081818A8382818A8383818A83F80180810F
:1027A0008A8381818A8382818A8383818A838481E7
:1027B0008A8385818A83FA82EA82ECE1FAE2819156
:1027C0008B838AE2EC32F807D1F75092C00001C047
:1027D00000008091C10080FFFBCF84E690E00E9462
:1027E000F5029091C200F3018081892781933F0116
:1027F0000894E11CF11C089481089108811491044B
:1028000009F0B3CFDF91CF911F910F91FF90EF901F
:10281000DF90CF90BF90AF909F908F907F906F9000
:102820005F904F900895DC01FB014430510518F48E
:1028300021E030E029C0808182958695869583705D
:102840008C93813019F022E030E01EC0808190E04E
:102850008073907024E0959587952A95E1F71196FD
:102860008C93119780818F7012968C93129781812F
:1028700013968C931397828114968C93149783816B
:1028800015968C9320E030E0C9010895FC01DB012E
:1028900012968C911297882329F410821182128249
:1028A00013820FC0893080F490E00496281739070E
:1028B00058F04C5F5F4F4083518312968C91828316
:1028C000138220E030E002C023E030E0C901089527
:1028D000CF92DF92EF92FF920F931F93CF93DF93EC
:1028E0008C017B016A01E901FA01A081B181211506
:1028F000310509F490C03C91832F82958F70682F29
:1029000070E06D30710579F4C230D10508F483C0F0
:10291000FD01319611968C911197682F70E0635FDD
:102920007F4F82E020C06E307105A9F4C330D1051D
:1029300008F471C0FD01329611969C91119780E0C8
:1029400012962C911297622F70E0682B792B635F9F
:102950007E4F83E008C06F30710519F42BE030E042
:102960005CC0FD0181E0432F50E04F7050704D304E
:10297000510569F48F5F90E0C817D90708F44BC080
:1029800031968081482F50E0435F5F4F19C04E3031
:10299000510581F48E5F90E0C817D907E0F191816D
:1029A00080E032962081422F50E0482B592B435F24
:1029B0005E4F06C04F30510519F428E030E02DC0BD
:1029C0004F5F5F4F9F01240F351F41505040AC0FA8
:1029D000BD1FA217B30718F427E030E01EC0D701CF
:1029E0008C91860FD8018C9331961196ED93FC93C0
:1029F000129713964D935C931497F60120833183BD
:102A0000D7018D919C911197860F971F8D939C9361
:102A100020E030E002C024E030E0C901DF91CF9136
:102A20001F910F91FF90EF90DF90CF9008954F92FC
:102A30005F926F927F928F929F92AF92BF92CF924E
:102A4000DF92EF92FF920F931F93DF93CF9300D00B
:102A50000F92CDB7DEB7DC014B015A01F90182813B
:102A600090E00496800F911FE00EF11EE816F90623
:102A700018F426E030E04DC019821A828B839C83C3
:102A80006D0100E010E033E0432E512C4C0E5D1E32
:102A90003E010894611C711C12C097012E1B3F0B54
:102AA000C601B301A2010E9468149C0185E090E078
:102AB000C80ED91E2115310561F50F5F1F4FF401B6
:102AC000808190E00817190740F4EB81FC81EE1536
:102AD000FF0518F480818F3F01F7F4010083EB813B
:102AE000FC819F012F5F3F4F2E153F0558F48081D9
:102AF0008F3F41F4F50120833183E21AF30AE28229
:102B0000F38205C0F501108211821282138220E047
:102B100030E0C9012496CDBFDEBFCF91DF911F9178
:102B20000F91FF90EF90DF90CF90BF90AF909F906C
:102B30008F907F906F905F904F900895EF92FF92EB
:102B40000F931F93CF93DF93EC018B017A010E94C7
:102B500013149C010097C1F4CE010696BE01A80192
:102B600097010E9446149C01009771F480E18A87C6
:102B7000BE01665F7F4FAE01455A5F4FCE010B9697
:102B80009E010E9417159C01C901DF91CF911F91F1
:102B90000F91FF90EF900895CF93DF93EC01DA014E
:102BA0001C92FC0140E050E020E030E01BC0838537
:102BB000861791F42115310559F49A01220F331F1C
:102BC000220F331F240F351F255F3F4F2C0F3D1F52
:102BD0008C918F5F8C9303C02115310541F44F5FB9
:102BE0005F4F35968A8590E04817590700F3C90171
:102BF000DF91CF910895FA016D307105810591053E
:102C000010F4608308956D5071408040904010F43E
:102C10008DE0808308956F927F928F92AF92CF92D2
:102C2000DF92EF920F93DF93CF93CDB7DEB73C01E6
:102C3000F60191E0DB019C9382E011968C93119751
:102C400012961C9212971396AC92139714960C93AB
:102C500014971596EC9215971A969C931A97C1148F
:102C6000D10461F0828112968C9380819181A2813E
:102C7000B381FB0186839783A087B1878CE0DB015A
:102C80001B968C931B97F301808191811C968D93E9
:102C90009C931D9782819381029718F429E030E07C
:102CA0001BC0D301ED91FC911197882D992787FDC9
:102CB00090959083ED91FC91818282E090E0FB0100
:102CC00086879787655A7F4FDB014D935D93FD01A2
:102CD0002083318320E030E0C901CF91DF910F9153
:102CE000EF90DF90CF90AF908F907F906F9008958E
:102CF0000F931F93FB01D80181E0808383E08183E0
:102D0000128280E88383448325831286011511058E
:102D100069F012968C91129782838D919D910D90FE
:102D2000BC91A02D86839783A087B187E55AFF4F7A
:102D3000119211921082118280E090E01F910F9108
:102D40000895FC018285482F50E020E030E00AC061
:102D500093859B3021F090FF02C081E008952F5FA2
:102D60003F4F35962417350798F380E008952F924A
:102D70003F924F925F926F927F928F929F92AF920B
:102D8000BF92CF92DF92EF92FF920F931F93DF9348
:102D9000CF93CDB7DEB72597CDBFDEBF3C016B012A
:102DA0002A012C833D83CB010E94A116882329F49C
:102DB000F4E48F2EF0E29F2E70C0C301B201D60161
:102DC00014964C91149715962C91E6E0F0E0CE0EF7
:102DD000DF1E86010E9478167DC0D4019C91F60109
:102DE0008381981709F055C0C6016BE0AE014F5FB3
:102DF0005F4F0E94CC159C01009709F44AC089815D
:102E0000282E3324D4011396ED91FC9114978081E0
:102E1000918128163906E9F579018F01AA24BB248E
:102E200025C0F70143815481D80112968C911297E5
:102E300013969C91DC01FD0101900020E9F7319788
:102E4000EA1BFB0B4E175F0721F5F70161817281C9
:102E50000E94B3289C0185E090E0E80EF91E0E5F09
:102E60001F4F232BB1F40894A11CB11CA214B3046E
:102E7000C4F2C301B601A201D60114962C91149795
:102E800015960C91EC80FD80EA81FB8119959C01DF
:102E900023C087E090E0880E991ED40111960D9012
:102EA000BC91A02DAA83BB83AB2B09F096CFC301A5
:102EB000B20140E050E020E030E0F6010481E5801E
:102EC000A6E0B0E0CA0EDB1EE4E8AE2E88248A94A9
:102ED0000E940B1620E030E0C9012596CDBFDEBF71
:102EE000CF91DF911F910F91FF90EF90DF90CF90E6
:102EF000BF90AF909F908F907F906F905F904F901A
:102F00003F902F9008952F923F924F925F926F9231
:102F10007F928F929F92AF92BF92CF92DF92EF9269
:102F2000FF920F931F93DF93CF9300D00F92CDB7F3
:102F3000DEB72C016B837C833A01DA0112968C9107
:102F4000129790E00496FB01208131812817390700
:102F500008F427C12C9130E006E0220F331F0A95B8
:102F6000E1F7D2012C93FA01818190E08370907097
:102F700014E0880F991F1A95E1F7282B2C93828172
:102F80008F70282B2C93838111968C9311978481B9
:102F900012968C931297858113968C9382010C5F05
:102FA0001F4F4281442399F050E080859185481756
:102FB000590719F02AE030E0F6C0D30116966C915B
:102FC000169717967C91C80150E00E94C028F30123
:102FD00082815801A80EB11C43012224332440E011
:102FE00050E08DC01A82950124193509AB81BC814E
:102FF0008D919C918217930708F4D3C0F4018385C7
:1030000090E0841B950B7C0100E010E0C801B70143
:10301000AE014E5F5F4F0E94FB15D4011E966D916D
:103020007C911F9780E090E0AE014F5F5F4F0E9460
:10303000FB158A818295807F9981892BF501819387
:103040006F018A818D3031F48E2D8D50D50111960E
:103050008C931DC08E30F1F423EF3EEF4FEF5FEF06
:10306000E20EF31E041F151FBB27A12F902F8F2DDB
:103070002DE031E040E050E0E20EF31E041F151F8A
:1030800081938E2D8D50D60111968C936F010894EB
:10309000C11CD11C89818D3039F4F40186858D5095
:1030A000D6018D936D0111C08E3079F4F4018785BE
:1030B000F6018193D4011E968C918D50D601119604
:1030C0008C936F010894C11CD11CF4016485758533
:1030D00046855785C6010E94C028D4011E96AD9032
:1030E000BC901F97AC0CBD1C1B968C91482F50E0D8
:1030F0000894211C311CE5E0F0E08E0E9F1ED301E8
:103100001A968C9190E02816390608F46BCF850149
:103110000419150904501040ADE5EA2EF12CE60C17
:10312000F71CF701208131812115310589F12B5FD1
:103130003F4F200F311FAB81BC818D919C91821735
:10314000930720F488E00E94A4072BC0F201E00F4F
:10315000F11F8FEF84830B5F1F4F9201200F311FF0
:1031600005501040F301E55AFF4F60817181F7016E
:1031700040815181C9010E94C028D7018D919C9145
:103180000596800F911FEB81FC818083918306C09F
:103190000C5F1F4FAB81BC810D931C9320E030E08E
:1031A00002C029E030E0C9012496CDBFDEBFCF9137
:1031B000DF911F910F91FF90EF90DF90CF90BF9024
:1031C000AF909F908F907F906F905F904F903F90C7
:1031D0002F9008958F929F92AF92BF92CF92DF92DD
:1031E000EF92FF920F931F93DF93CF93CDB7DEB78C
:1031F000C05DD740CDBFDEBF4C016B015A01F22E3E
:10320000E02E8E010F5F1F4FC80160ED77E00E9436
:103210005E269C0186E090E0C80ED91EC401B5016F
:10322000A8010F2DF5E4AF2EE2E38E2E0E940B16BF
:10323000C053D84FCDBFDEBFCF91DF911F910F910B
:10324000FF90EF90DF90CF90BF90AF909F908F90C6
:1032500008958F92AF92CF92DF92EF920F93FB017E
:10326000A22FE02E3696BA014FE950E221E030E07D
:103270000A2F6F01A5E4AA2E88240E940B160F9135
:10328000EF90DF90CF90AF908F9008958F92AF9294
:10329000CF92DF92EF92FF920F93CF93DF937C0157
:1032A000EB016A01A22E802E0E940523882319F4C7
:1032B00047E050E202C049E050E22696C701B6015D
:1032C00021E030E00A2DE82C6E01B5E4AB2E882415
:1032D0000E940B16DF91CF910F91FF90EF90DF903E
:1032E000CF90AF908F9008958F929F92AF92BF92A0
:1032F000CF92DF92EF92FF920F931F93DF93CF93C2
:10330000CDB7DEB72B97CDBFDEBF4C016B015A01A5
:10331000F22EE02E0E94FF252DB73EB72A503040F6
:103320002DBF3EBFEDB7FEB731968E010F5F1F4F29
:10333000ADB7BEB711960D931C9312972BE030E0FA
:10334000228333832BE030E22483358366837783C3
:10335000808791870E94D928282F8DB79EB70A961B
:103360008DBF9EBFA6E0B0E0CA0EDB1EC401B50152
:10337000A80130E00F2D15E4A12E88240E940B1621
:103380002B96CDBFDEBFCF91DF911F910F91FF90A4
:10339000EF90DF90CF90BF90AF909F908F90089567
:1033A0008F929F92AF92BF92CF92DF92EF92FF9255
:1033B0000F931F93DF93CF93CDB7DEB72D97CDBF7C
:1033C000DEBF4C016B015A01F22EE02E8DB79EB785
:1033D00042978DBF9EBFEDB7FEB731968E010F5F4E
:1033E0001F4FADB7BEB711960D931C9312978DE08A
:1033F00090E0828393838FE090E284839583809131
:10340000312A868317828091302A808711868091A5
:103410002F2A8287138680912E2A84871586809191
:103420002D2A8687178680912C2A808B118A0E94EC
:10343000D928282F8DB79EB742968DBF9EBFA6E094
:10344000B0E0CA0EDB1EC401B501A80130E00F2DAB
:10345000E5E4AE2E88240E940B162D96CDBFDEBF6C
:10346000CF91DF911F910F91FF90EF90DF90CF9060
:10347000BF90AF909F908F9008958F92AF92BF9220
:10348000CF92DF92EF92FF920F931F93CF93DF9330
:103490007C01EB015A01822E102F0DE5C02ED12C9C
:1034A000C60ED71EF60180819181892B59F10E94A9
:1034B00005238823D1F0FE01E55AFF4F80819181D9
:1034C000F60160810E949C020E941B23882369F000
:1034D0002696C701B50149E050E221E030E0082D11
:1034E000E12E6E01B4E4AB2E19C02696C701B501DA
:1034F00047E050E221E030E0082DE12E6E01A5E426
:10350000AA2E0CC02696C701BA0140E050E020E088
:1035100030E0082DE12E6E01F0E8AF2E88240E94E5
:103520000B16DF91CF911F910F91FF90EF90DF90DD
:10353000CF90BF90AF908F9008958F929F92AF924F
:10354000BF92CF92DF92EF92FF920F931F93DF9380
:10355000CF93CDB7DEB72B97CDBFDEBF6C01FB019C
:103560007A01822E902EE35AFF4F60817181ED55D2
:10357000F040A6E0AA2EB12CAE0EBF1E611571055B
:10358000D1F1E55AFF4F808191810E949C020E94F7
:103590004F210E9443212DB73EB72A5030402DBF06
:1035A0003EBFEDB7FEB731968E010F5F1F4FADB72F
:1035B000BEB711960D931C9312972BE030E0228337
:1035C00033832BE030E224833583668377838087DF
:1035D00091870E94D928282F8DB79EB70A968DBF54
:1035E0009EBFC601B701A80130E0082DE92C650196
:1035F000F4E4AF2E0AC0BA0140E050E020E030E031
:10360000082DE92C6501E0E8AE2E88240E940B16F7
:103610002B96CDBFDEBFCF91DF911F910F91FF9011
:10362000EF90DF90CF90BF90AF909F908F900895D4
:103630008F929F92AF92BF92CF92DF92EF92FF92C2
:103640000F931F93DF93CF93CDB7DEB72B97CDBFEB
:10365000DEBF4C016B015A01F22EE02E0E94432185
:103660002DB73EB72A5030402DBF3EBFEDB7FEB755
:1036700031968E010F5F1F4FADB7BEB711960D93F8
:103680001C9312972BE030E0228333832BE030E24F
:103690002483358366837783808791870E94D92826
:1036A000282F8DB79EB70A968DBF9EBFA6E0B0E0CB
:1036B000CA0EDB1EC401B501A80130E00F2DB5E430
:1036C000AB2E88240E940B162B96CDBFDEBFCF9168
:1036D000DF911F910F91FF90EF90DF90CF90BF90FF
:1036E000AF909F908F9008958F92AF92CF92DF927C
:1036F000EF92FF920F93CF93DF937C01EB016A016E
:10370000A22E802E0E94D922882319F447E050E28D
:1037100002C049E050E22696C701B60121E030E040
:103720000A2DE82C6E01E5E4AE2E88240E940B16CB
:10373000DF91CF910F91FF90EF90DF90CF90AF90FE
:103740008F9008958F92AF92CF92DF92EF92FF9277
:103750000F93CF93DF937C01EB016A01A22E802EA1
:103760000E94D622882319F444E450E002C045E5C3
:1037700050E02696C701B60121E030E00A2DE82C82
:103780006E01F5E4AF2E88240E940B16DF91CF91D5
:103790000F91FF90EF90DF90CF90AF908F900895B2
:1037A0008F929F92AF92CF92DF92EF920F93CF932F
:1037B000DF936C01DB01EA01A22EE02EA35ABF4F7A
:1037C0008D919C911197AD55B040892B61F416965F
:1037D000C601BA0140E050E020E030E00A2D6D0162
:1037E000E0E8AE2E4EC0A55ABF4FED91FC91119767
:1037F000E0810BEA802E0FEF902E8A0E9B1EE133A4
:10380000D9F4E0939F2081E00E94A40782E00E9407
:10381000A40783E00E94A40784E00E94A40785E037
:103820000E94A40786E00E94A40787E00E94A407E4
:1038300088E00E94A4071BC080E380939F2081E062
:103840000E94C60782E00E94C60783E00E94C60766
:1038500084E00E94C60785E00E94C60786E00E94B9
:10386000C60787E00E94C60788E00E94C607C60117
:10387000BE014FE950E221E030E00A2D6401A4E4EA
:10388000AA2E88240E940B16DF91CF910F91EF9002
:10389000DF90CF90AF909F908F9008958F92AF92CE
:1038A000CF92DF92EF920F931F936B01122FE02EB6
:1038B000A0EAB0E2FD0101900020E9F73197EA1B90
:1038C000FB0B26E030E0C20ED31EBA01AD019F0112
:1038D000012FA5E4AA2EF8E28F2E0E940B161F914D
:1038E0000F91EF90DF90CF90AF908F900895AF92AF
:1038F000BF92CF92DF92EF92FF920F931F93DF93CD
:10390000CF93CDB7DEB7C85DD040CDBFDEBF7C0161
:103910008EE490E58B839C8300E010E10D831E8391
:103920008EE4C82E80E6D82ED70150966C91509721
:1039300051967C91519752964D915C915397C60147
:103940000E94C028BBE1AB2EB12CAC0EBD1EF7010E
:1039500042895389C501B6010E949E15892B09F041
:1039600061C009831A838E0106581F4FCE0103964A
:10397000B501A80197010E94B716C601BE016F5F8D
:103980007F4FA8010E948317892BD9F589819A81DD
:103990008D5D9540A0F584E1FE013796DF011D9213
:1039A0008A95E9F7F701248135814681578182851F
:1039B00093858F87988B60857185848581FF02C090
:1039C00082E08B8B1E8A8CE29AE28C8B9D8B8EE43C
:1039D00090E68F8B988F89819A81898F9A8F8091B9
:1039E0000C2A90910D2A698B7A8B2F83388749870F
:1039F0005A87BE01695F7F4F0E94091013C083E0A0
:103A00000FC00F920F9289E292E0ADB7BEB7119648
:103A10008D939C9312970E9499200F900F9082E0B3
:103A20000E94A407C852DF4FCDBFDEBFCF91DF9108
:103A30001F910F91FF90EF90DF90CF90BF90AF90CC
:103A400008958F929F92AF92BF92CF92DF92EF92A2
:103A5000FF920F931F93CF93DF9395E4A92E90E2EB
:103A6000B92E0BED15E065C0F501C480D580C114F9
:103A7000D10409F45AC08091A020882349F080EA3B
:103A800090E268E270E2A8010E94C928015010404B
:103A900080EA90E26AE270E2A8010E94C92801501F
:103AA0001040F50182809380E401EE24FF241EC0C3
:103AB00080EA90E26CE270E2A8010E94C9280150FD
:103AC00010406881798180EA90E2A8010E94C928AB
:103AD000A881B981FD0101900020E9F73197EA1B27
:103AE000FB0B0E1B1F0B0894E11CF11C2296F4012A
:103AF00080819181E816F906DCF280EA90E26EE2BC
:103B000070E2A8010E94C9280250104080EA90E2A9
:103B1000B601A8010E94C928F60101900020E9F72A
:103B20003197EC19FD090E1B1F0B87E090E0A80EE2
:103B3000B91EF50180819181892B09F095CFDF9124
:103B4000CF911F910F91FF90EF90DF90CF90BF909A
:103B5000AF909F908F9008950E94211D0895E0ECF2
:103B6000F1E084858860848708958091CF0187FD86
:103B700006C08091252920E030E0882311F021E063
:103B800030E0822F08950F931F93082F60912A2908
:103B900070912B2920911C2930911D292115310567
:103BA00009F49AC0882309F4F8948091CF0181FD2B
:103BB0000FC010912229A0912029B0912129E091D4
:103BC0001E29F0911F2940912329509124295EC07C
:103BD00086E3E0ECF1E08287EF93FF930F932F935E
:103BE000EBECF1E008ED21E004BF20832F910F9171
:103BF000FF91EF918091CF0187FDFCCFDACF9C91AF
:103C00008081891711F0908311E031961196CF01D0
:103C10008F719070892B21F02115310509F036C084
:103C2000CA018096112309F430C0A0932029B093D3
:103C30002129E0931E29F0931F2920931C293093FA
:103C40001D29E0ECF1E0128251834093C0011092F3
:103C50002229809323299093242985E38287EF9357
:103C6000FF930F932F93EBECF1E008ED21E004BFFD
:103C700020832F910F91FF91EF918091CD01826070
:103C800085870023A1F5789432C0AC0121503040E3
:103C90008FEF2F3F380709F0B2CF10932229A0935E
:103CA0002029B0932129E0931E29F0931F294093E6
:103CB00023295093242920931C2930931D29611511
:103CC000710531F010922A2910922B29FB011995C8
:103CD000002359F4789409C06115710531F01092F0
:103CE0002A2910922B29FB011995109225291F9141
:103CF0000F910895FC014115510561F1809125292D
:103D0000882341F520932A2930932B29E0932329F6
:103D1000F0932429E050F04FE0931E29F0931F29DF
:103D2000E050F041609320297093212910922229BC
:103D3000E0932629F0932729609328297093292955
:103D400040931C2950931D2981E08093252980E010
:103D50000E94C31D089520E030E00E947A1E08955D
:103D60001F920F920FB60F9208B60F9209B60F92DC
:103D70000BB60F92112418BE19BE1BBE2F933F9392
:103D80004F935F936F937F938F939F93AF93BF9363
:103D9000EF93FF93E0ECF1E085858C7F858781E0F0
:103DA0000E94C31DFF91EF91BF91AF919F918F91A1
:103DB0007F916F915F914F913F912F910F900BBE2B
:103DC0000F9009BE0F9008BE0F900FBE0F901F906E
:103DD00018959C018091CF0187FDFCCFD901A0509F
:103DE000B04FFB0104C08D9181934150504041156B
:103DF0005105C9F70895DF92EF92FF920F931F9339
:103E0000CF93DF93EC018B017A01D22E809125298B
:103E1000882331F0222321F480E015C00E94F503AD
:103E2000809125298823D1F7CE01B801A7010E94EE
:103E3000AB1EDD2019F406C00E94F50380912529F0
:103E40008823D1F781E0DF91CF911F910F91FF90EF
:103E5000EF90DF9008950E94FB1E0895CF92DF92AD
:103E6000EF92FF920F931F93CF93DF936901E801C5
:103E700078018901025010400F8318878C836D836D
:103E80004E838FEF9FEF08C0F70161917F0170E0D3
:103E90000E9483130150104001151105A9F7CC0DA4
:103EA000DD1D229788839983DF91CF911F910F9118
:103EB000FF90EF90DF90CF9008950F931F93809124
:103EC0001B2A8823F9F010921B2A8091162A6091F0
:103ED000172A4091182A22E230E002E11AE20E94F9
:103EE0002E1F80E190E0B80142E250E020E00E9405
:103EF000FB1E882321F084E00E94A40703C081E018
:103F000080931B2A1F910F9108952F923F924F92F9
:103F10005F926F927F928F929F92AF92BF92CF9259
:103F2000DF92EF92FF920F931F93CF93DF931B01CA
:103F30002C016A018901F901878190852EEF822E7B
:103F40002FEF922E840E951E74018815990508F4A2
:103F50007C015801E7012FEF3FEF09C0F5016191A6
:103F60005F01C90170E00E9483139C012197209793
:103F7000A9F73901E00EF11EF701A080B180F80128
:103F8000878190858816990608F47CC0E601C81BD5
:103F9000D90B229709C0F70161917F01C90170E037
:103FA0000E9483139C0121972097A9F7F801EC0D3B
:103FB000FD1D3297808191812817390751F5F8014D
:103FC000878190850296C816D90619F560E084812C
:103FD00090E0A0E0B0E0DC0199278827258130E05F
:103FE00040E050E0542F432F322F2227822B932B77
:103FF000A42BB52B268130E040E050E0822B932BA0
:10400000A42BB52B82159305A405B505E0F161E05D
:104010003AC06A147B04B1F5F80147815085481510
:10402000590580F5E40FF51FC601841B950BAC0103
:1040300003C011924150504041155105D1F7F8018C
:10404000848190E0A0E0B0E0DC01992788272581F9
:1040500030E040E050E0542F432F322F2227822BB4
:10406000932BA42BB52B268130E040E050E0822B2F
:10407000932BA42BB52B82159305A405B50510F041
:1040800062E001C060E0862FDF91CF911F910F9118
:10409000FF90EF90DF90CF90BF90AF909F908F9068
:1040A0007F906F905F904F903F902F9008950E9467
:1040B000AF1D80E190E062E17AE242E250E00E94CE
:1040C000E91E61E070E080E090E042E250E022E131
:1040D0003AE20E94851F882311F581E08093162A19
:1040E0001092172A1092182A81E091E0A1E0B1E025
:1040F0008093122A9093132AA093142AB093152A1E
:1041000083E00E94A40780E18150E82FF0E0EE5E9A
:10411000F54D12868823C1F781E080931B2A80E643
:104120009AEE61E04DE55FE120E030E00E94E904B5
:1041300008950F931F93DF93CF93CDB7DEB7C05889
:10414000D040CDBFDEBF80910C2A90910D2A892BE3
:10415000F1F0FE01E657FF4F8E010F5F1F4FC801C0
:1041600060E870E0C857DF4F48815981C858D04097
:104170009F010E944229482F80910C2A90910D2A7C
:10418000B8010E944C0D85E090E00E94F502C058F5
:10419000DF4FCDBFDEBFCF91DF911F910F9108950B
:1041A0000F931F93DF93CF93CDB7DEB7C058D040A6
:1041B000CDBFDEBF80910C2A90910D2A892BF1F0A2
:1041C000FE01E657FF4F8E010F5F1F4FC80160E8E9
:1041D00070E0C857DF4F48815981C858D0409F01CF
:1041E0000E941129482F80910C2A90910D2AB80124
:1041F0000E944C0D85E090E00E94F502C058DF4F10
:10420000CDBFDEBFCF91DF911F910F910895FC01CB
:1042100083E081838AEF86A38FEF87A384E0808386
:1042200008950F931F93CF93DF938C014056504F07
:10423000DC01989670E0CB01880F991FA80FB91F79
:10424000F801B996E80FF91FE801298180E190E0B3
:1042500002C0880F991F6A95E2F7282B29834C9397
:104260005083DF91CF911F910F9108958BE0E0E48F
:10427000F0E08383E0E0F4E0128680E8838781E069
:104280008283808308958FB7F8948FBF60912C2923
:1042900070912D2980912E2990912F290895EF92C8
:1042A000FF920F931F937B018C01E0E0F4E080917B
:1042B000010480FDFACF108611868091010480FDF3
:1042C000FCCF2FB7F89460912C2970912D29809103
:1042D0002E2990912F29E0922C29F0922D290093DC
:1042E0002E2910932F292FBFA80197010E94132672
:1042F0001F910F91FF90EF9008951F920F920FB6AC
:104300000F9208B60F9209B60F920BB60F921124B6
:1043100018BE19BE1BBE2F933F934F935F936F93AD
:104320007F938F939F93AF93BF93EF93FF9380916E
:104330002C2990912D29A0912E29B0912F290196F9
:10434000A11DB11D80932C2990932D29A0932E2976
:10435000B0932F2981E00E94E807882321F081E0B3
:104360000E94C60703C081E00E94A407FF91EF915D
:10437000BF91AF919F918F917F916F915F914F917D
:104380003F912F910F900BBE0F9009BE0F9008BE6A
:104390000F900FBE0F901F9018951F920F920FB69F
:1043A0000F9208B60F920BB60F92112418BE1BBEC7
:1043B0002F933F934F938F939F93EF93FF93E0E45B
:1043C000F9E020A530E041A5942F80E0822B932BCB
:1043D000809333299093342981E080933529FF918C
:1043E000EF919F918F914F913F912F910F900BBE25
:1043F0000F9008BE0F900FBE0F901F9018958091E0
:10440000322990E008959FB7F89440913329509154
:10441000342980913529109235299FBF882369F16D
:1044200080913029909131298531910530F1893C75
:10443000910518F54F31510500F12AE3483952072B
:1044400018F060E177E20FC09A0193E0220F331F6A
:104450009A95E1F7440F551F240F351FC9016DE1EF
:1044600070E00E947D2880E00E942D238AEF90E07A
:10447000809330299093312908958091302990912B
:104480003129019680933029909331290197853104
:10449000910589F08631910518F44497F1F407C02D
:1044A000883C910561F0845F9140B9F412C089E2C3
:1044B0000E94A407089589E20E94C607089580E03B
:1044C00060E177E20E942D23109230291092312969
:1044D000089510923029109231290895EF92FF9299
:1044E0000F931F93DF93CF9300D0CDB7DEB730E4A7
:1044F000E32E39E0F32E80E1D70111968C931197CA
:1045000088EC13968C93139714961C9288E2BE0144
:104510006E5F7F4F40E050E09E012F5F3F4F0E9453
:1045200084078A819B818050964025E096958795E7
:104530002A95E1F7865F880F880F880F2981822BE3
:1045400000E811E0F8018083208100D00F92EDB7E0
:10455000FEB731968CE392E0ADB7BEB711968D935E
:104560009C931297228313820E949920F80110864F
:1045700081E0D70117968C93179785E08C930F9065
:104580000F900F900F9081E090E061E043E052E2E5
:1045900020E030E00E94E9042396CDBFDEBFCF913A
:1045A000DF911F910F91FF90EF9008958091362A2F
:1045B00008958091342A803110F091E805C085304B
:1045C00010F090E801C09FE780E0913808F081E0AA
:1045D00008958091342A803110F081E805C085303B
:1045E00010F080E801C08FE78095881F8827881F1A
:1045F000089581E08093362A80933C2A0895109292
:10460000362A81E080933C2A089580913D2A8823B0
:1046100011F420E00EC020E080913E2A90913F2AC4
:10462000A091402AB091412A0097A105B10509F453
:1046300021E0822F08959B01AC0180913D2A8823BF
:1046400059F020933E2A30933F2A4093402A5093BA
:10465000412A10923D2A81E00895CF93DF93EB0128
:10466000882309F043C0CB0105978C5F9E4F38F03B
:104670008091342A8B3070F48A30A9F011C0809177
:10468000422A9091432A8617970730F48091342A62
:10469000882349F0815005C08091342A843118F470
:1046A0008F5F8093342A8091342A853018F488E013
:1046B0000E94C6078091342A803118F088E00E9459
:1046C000A4078AE00E94E807882381F000D00F92B7
:1046D00086E492E0EDB7FEB781839283C383D483EF
:1046E0000E9499200F900F900F900F90DF91CF9123
:1046F00008958091362A20913629309137298823D0
:1047000039F081E12439380780F42F5F3F4F05C02D
:104710002115310551F02150304020933629309336
:10472000372981E080933C2A02C010923C2A4091B4
:1047300036295091372980E098E060E00E941121ED
:1047400008950F931F930E94E922882321F085E0AA
:104750000E94A40703C085E00E94C6070E94D922D8
:10476000882321F086E00E94A40703C086E00E940F
:10477000C60780913829882309F0ACC101E0009375
:1047800038298091372A9091382A009711F00197A3
:104790009BC11091352A133009F49EC0143030F4B7
:1047A000113029F1123008F04FC00DC0153009F456
:1047B000EEC0153008F4CBC0163009F41AC117301A
:1047C00009F086C156C11092362A00933C2A83E034
:1047D0000E94802584EC99E08093372A9093382AB0
:1047E0000093352A1092392A10923A2A71C10E94F8
:1047F000E922882309F462C18091392A90913A2AEA
:1048000001968093392A90933A2A0B9708F45AC15B
:104810000F920F928CE193E0EDB7FEB78183928304
:104820000E9499201093362A10933C2A84E690E047
:104830008093422A9093432A1092392A10923A2A5E
:1048400082E08093352A34C08AE090E08093372A52
:104850009093382A8091112A882321F40E94E9221A
:10486000882349F18091392A90913A2A01968093C0
:10487000392A90933A2A80913C2A882309F028C14A
:1048800083E08093352A0F920F928AE093E0EDB790
:10489000FEB7818392830E94992010923E2A109243
:1048A0003F2A1092402A1092412A81E080933D2AAB
:1048B0000F900F900DC11092362A00933C2A0F9250
:1048C0000F928AEE92E0EDB7FEB7818392830E9449
:1048D00099201092352AECCF89E00E94E8078823BE
:1048E00061F480913E2A90913F2AA091402AB09194
:1048F000412A0097A105B10501F110923D2A0F92BE
:104900000F9282ED92E0EDB7FEB7818392830E9411
:1049100099200F900F9083E00E9480251092362AF4
:1049200081E080933C2A84EC99E08093372A90932D
:10493000382A84E08093352ACBC084E690E08093C7
:10494000372A9093382A81E00E948025C1C0809147
:104950003C2A882309F0BCC082E00E9480250F9287
:104960000F9288EB92E0EDB7FEB7818392830E94AD
:1049700099201092392A10923A2A85E08093352A9C
:1049800088EC90E08093422A9093432A91CF0E9432
:10499000D922882351F082E00E9480251092392A82
:1049A00010923A2A86E08093352A8091392A909194
:1049B0003A2A01968093392A90933A2A82339105B4
:1049C00021F483E00E9480257DC0CD9708F47AC051
:1049D0000F920F928CE892E0EDB7FEB7818392833D
:1049E0000E9499201092352A1092392A10923A2A60
:1049F0001CC08091392A90913A2A0A97C8F40E94E3
:104A0000D922882329F08091392A90913A2A50C0DE
:104A10000F920F9289E792E0EDB7FEB78183928300
:104A20000E94992085E08093352A0F900F904AC00C
:104A30000F920F928AE692E0EDB7FEB781839283E0
:104A40000E9499200F900F9060913E2A70913F2A0A
:104A50008091402A9091412A0E94382881E00E944A
:104A600080251092392A10923A2A87E08093352ABD
:104A700029C00E94E922882309F18091392A909166
:104A80003A2A8B309105A0F083E00E9480250F9296
:104A90000F928FE492E0EDB7FEB7818392830E947C
:104AA00099201092352A0F900F900E9401280AC079
:104AB00001968093392A90933A2A04C01092392A99
:104AC00010923A2A88EE93E08093372A9093382AFE
:104AD000109238291F910F91089581E090E061E0D4
:104AE00041EA53E220E030E00E94E90481E090E0F6
:104AF00061E049E753E220E030E00E94E9040895D4
:104B0000982F80913929891759F0909339298AE093
:104B100080933A298BE20E94C6078AE20E94C60768
:104B2000089580913A29815080933A298F5F09F046
:104B300058C089E080933A29809139298330A1F0C7
:104B4000843028F4813059F0823028F512C0853045
:104B500049F18530B8F0863009F043C033C08BE2AC
:104B60000E94C6078AE22BC08AE20E94E8078823D7
:104B700021F08AE20E94C60703C08AE20E94A407CD
:104B80008BE20DC08BE20E94E807882321F08BE2C4
:104B90000E94C60703C08BE20E94A4078AE20E941B
:104BA000C60708958AE20E94E807882321F08AE276
:104BB0000E94C60703C08AE20E94A4078BE20E94FB
:104BC000A40708958BE20E94E807882321F08BE276
:104BD0000E94C60703C08BE20E94A4078AE20E94DB
:104BE000A407089582E390E061E041E955E220E006
:104BF00030E00E94E90408958091FB290895809196
:104C0000FB29882329F420E030E040E050E008C090
:104C10002091FC293091FD294091FE295091FF29D6
:104C2000B901CA010895EF92FF920F931F937B0180
:104C30008C01BA01A9018091FB29882379F4909114
:104C4000042AEBE3F9E28CE0989F900111242E0FE7
:104C50003F1F4E195F09600B710B28C0DB01CA01B1
:104C60008E199F09A00BB10B8093002A9093012A03
:104C7000A093022AB093032AE2CF80819181A2817E
:104C8000B381840F951FA61FB71F80839183A283D2
:104C9000B38384819581A681B781840F951FA61F58
:104CA000B71F84839583A683B7833C96E217F307E7
:104CB00021F71F910F91FF90EF9008956F927F92CF
:104CC0008F929F92AF92BF92CF92DF92EF92FF921C
:104CD0000F931F93CF93DF936C016330710508F43A
:104CE000FAC08BE7D6018C935B010894A108B10848
:104CF0000E9405238823B1F000D000D0EDB7FEB7A5
:104D000031960894C11CD11CADB7BEB71196CD9297
:104D1000DC9212970894C108D108A282B38289E17B
:104D200097E246C08091FB29E6012196882389F10C
:104D30000E944321E090002AF090012A0091022A6B
:104D40001091032A2DB73EB72E5030402DBF3EBFE5
:104D5000EDB7FEB73196ADB7BEB71196CD93DC93E4
:104D60001297A282B3822BE537E2248335836E1932
:104D70007F09800B910B6683778380879187E2861A
:104D8000F386048715870E94D928EDB7FEB73E96B3
:104D900016C000D000D0EDB7FEB73196ADB7BEB7A4
:104DA0001196CD93DC931297A282B38281EA97E2A7
:104DB000848395830E94D928EDB7FEB73696EDBF60
:104DC000FEBF8A159B0508F086C0EC01219685017F
:104DD000081B190BEE24ECE2FE2E73EEA72E77E2F1
:104DE000B72E61C0EE2039F0F601EC0FFD1FF08206
:104DF0002196015010402E2D30E08DB79EB744977C
:104E00008DBF9EBF4DB75EB74F5F5F4FC6018C0F22
:104E10009D1FADB7BEB711968D939C931297FA0163
:104E200002831383A482B58226833783F901EE0FB0
:104E3000FF1FE20FF31FEE0FFF1FEE0FFF1F9F017B
:104E4000255C364DD9016D907D908D909C90DA0156
:104E500018966D927D928D929C921B97E15CF64D17
:104E600080819181A281B381FA0184879587A68789
:104E7000B787F90180859185A285B385FA01808B7A
:104E8000918BA28BB38B0E94D9289C018DB79EB7C2
:104E900044968DBF9EBF20173107E8F4C20FD31F81
:104EA000021B130BE3948091042AE81608F49ACFAE
:104EB0000230110590F0F601EC0FFD1F8DE58083A7
:104EC0009E012F5F3F4FC20ED31E8DE7D6018C93FC
:104ED000E901219602C0C0E0D0E0CE01DF91CF9180
:104EE0001F910F91FF90EF90DF90CF90BF90AF9008
:104EF0009F908F907F906F9008956F927F928F9286
:104F00009F92AF92BF92CF92DF92EF92FF920F9358
:104F10001F935B016C0139014A014FE04150242F7E
:104F200030E0C9010196DC01AA0FBB1FA80FB91F11
:104F3000AA0FBB1FAA0FBB1FF901EE0FFF1FE20F45
:104F4000F31FEE0FFF1FEE0FFF1FA55CB64DE55CD4
:104F5000F64D8CE001900D928150E1F74423F1F67B
:104F6000A0923B29B0923C29C0923D29D0923E2983
:104F700060923F2970924029809241299092422963
:104F8000E0924329F0924429009345291093462941
:104F90002DB73EB72E5030402DBF3EBFEDB7FEB708
:104FA00031968BE293E0ADB7BEB711968D939C938B
:104FB0001297A282B382C482D5826682778280866B
:104FC0009186E286F386048715870E949920809156
:104FD000042A2DB73EB7225F3F4F2DBF3EBF803121
:104FE00018F48F5F8093042A1F910F91FF90EF9028
:104FF000DF90CF90BF90AF909F908F907F906F90F9
:105000000895AF92BF92CF92DF92EF92FF920F93EB
:105010001F938091FB29882311F1A090002AB09062
:10502000012AC090022AD090032A0E9443219B01AA
:10503000AC01E090FC29F090FD290091FE2910912F
:10504000FF29C601B5010E947D271092FB2910920D
:10505000FC291092FD291092FE291092FF291F9120
:105060000F91FF90EF90DF90CF90BF90AF90089599
:10507000EF92FF920F931F937B018C018091FB298C
:10508000882311F00E94012881E08093FB29E0929F
:10509000FC29F092FD290093FE291093FF290E941C
:1050A00043216093002A7093012A8093022A9093EF
:1050B000032A1F910F91FF90EF900895629FD001F6
:1050C000739FF001829FE00DF11D649FE00DF11DC3
:1050D000929FF00D839FF00D749FF00D659FF00D72
:1050E0009927729FB00DE11DF91F639FB00DE11D5F
:1050F000F91FBD01CF0111240895AA1BBB1B51E16B
:1051000007C0AA1FBB1FA617B70710F0A61BB70B37
:10511000881F991F5A95A9F780959095BC01CD01DC
:105120000895A1E21A2EAA1BBB1BFD010DC0AA1FE8
:10513000BB1FEE1FFF1FA217B307E407F50720F000
:10514000A21BB30BE40BF50B661F771F881F991F7B
:105150001A9469F760957095809590959B01AC01C4
:10516000BD01CF010895FB01DC0104C08D910190C8
:10517000801921F441505040C8F7881B990B0895BD
:10518000FB01DC0102C001900D9241505040D8F764
:105190000895FB01DC010D900020E9F711974150C3
:1051A000504028F0019000200D92C9F708951C92FC
:1051B00008950F931F93DF93CF93CDB7DEB72E974C
:1051C000CDBFDEBF0E891F89888D998D97FF02C0E4
:1051D00080E090E801978D839E8309831A8386E09F
:1051E0008C839E01245E3F4FCE0101966A8D7B8D9C
:1051F000A9010E9473294D815E8157FD0AC02F814C
:105200003885421753070CF49A01020F131FF80157
:1052100010822E96CDBFDEBFCF91DF911F910F91EF
:1052200008950F931F93DF93CF93CDB7DEB72E97DB
:10523000CDBFDEBF8C0177FF02C060E070E8615037
:1052400070406D837E8309831A8386E08C83CE0150
:105250000196BA01A9010E9473292D813E8137FD73
:1052600009C0EF81F8852E173F070CF4F901E00F14
:10527000F11F10822E96CDBFDEBFCF91DF911F911F
:105280000F9108950F931F93DF93CF93CDB7DEB7A0
:105290002E97CDBFDEBF8C0177FF02C060E070E8C3
:1052A000615070406D837E8309831A838EE08C8306
:1052B000CE010196BA01A9010E9473292D813E8178
:1052C00037FD09C0EF81F8852E173F070CF4F9016F
:1052D000E00FF11F10822E96CDBFDEBFCF91DF9180
:1052E0001F910F9108952F923F924F925F926F926C
:1052F0007F928F929F92AF92BF92CF92DF92EF9266
:10530000FF920F931F93DF93CF93CDB7DEB72B9709
:10531000CDBFDEBF3C012B015A01FC011682178272
:10532000838181FD03C06FEF7FEFC6C19AE0892EB4
:105330001E010894211C311CF3012381F20123FD7D
:10534000859123FF81912F01882309F4B2C1853211
:1053500039F423FD859123FF81912F01853229F4B2
:1053600090E0B3010E94892BE7CF982FFF24EE2411
:105370009924FFE1FF15D0F09B3269F09C3228F4AC
:10538000903259F0933291F40EC09D3249F090332F
:1053900069F441E024C052E0F52A84E0F82A28C0EC
:1053A00098E0F92A25C0E0E1FE2A22C0F7FC29C0D6
:1053B000892F80538A3070F4F6FE05C0989C902C9B
:1053C0001124980E15C0E89CE02C1124E80EF0E2A0
:1053D000FF2A0EC09E3229F4F6FC6BC140E4F42A89
:1053E00007C09C3619F450E8F52A02C0983649F4F3
:1053F000F20123FD959123FF91912F01992309F04B
:10540000B8CF892F8554833018F08052833038F418
:1054100044E050E0A40EB51E5FE359830FC09336FD
:1054200031F0933779F0933509F056C020C0F5017B
:105430008081898342E050E0A40EB51E610101E045
:1054400010E012C0F501C080D180F6FC03C06FEF00
:105450007FEF02C0692D70E042E050E0A40EB51E5F
:10546000C6010E947E2B8C015FE7F52214C0F50176
:10547000C080D180F6FC03C06FEF7FEF02C0692DC2
:1054800070E042E050E0A40EB51EC6010E94732BEE
:105490008C0150E8F52AF3FE07C01AC080E290E0C4
:1054A000B3010E94892BEA948E2D90E0081719070A
:1054B000A8F30EC0F601F7FC8591F7FE81916F010C
:1054C00090E0B3010E94892BE110EA940150104052
:1054D0000115110579F7EAC0943611F0993669F58E
:1054E000F7FE08C0F501208131814281538184E0BB
:1054F00090E00AC0F501808191819C01442737FD2D
:105500004095542F82E090E0A80EB91E9FE6F92244
:1055100057FF09C050954095309521953F4F4F4F0B
:105520005F4FE0E8FE2ACA01B901A1012AE030E09C
:105530000E94B52BD82ED21840C0953729F41F2DC4
:105540001F7E2AE030E01DC01F2D197F9F3661F0BD
:10555000903720F4983509F0ACC00FC0903739F07F
:10556000983709F0A6C004C028E030E00AC01061F6
:1055700014FD146020E130E004C014FD166020E149
:1055800032E017FF08C0F50160817181828193814B
:1055900044E050E008C0F50180819181BC0180E0C9
:1055A00090E042E050E0A40EB51EA1010E94B52B90
:1055B000D82ED2188FE7F82EF122F6FE0BC05EEF40
:1055C000F522D91438F4F4FE07C0F2FC05C08FEEC2
:1055D000F82202C01D2D01C0192DF4FE0DC0FE01E0
:1055E000ED0DF11D8081803319F499EEF92208C088
:1055F0001F5FF2FE05C003C08F2D867809F01F5F84
:105600000F2DF3FC14C0F0FE0FC01E1510F09D2CE2
:105610000BC09D2C9E0C911A1E2D06C080E290E0BE
:10562000B3010E94892B1F5F1E15C0F304C01E1515
:1056300010F4E11A01C0EE2404FF0FC080E390E0F3
:10564000B3010E94892B02FF1DC001FD03C088E742
:1056500090E00EC088E590E00BC0802F867891F036
:1056600001FF02C08BE201C080E2F7FC8DE290E016
:10567000B3010E94892B06C080E390E0B3010E9431
:10568000892B9A94D914C0F3DA94F101ED0DF11D30
:10569000808190E0B3010E94892BDD20A9F706C02C
:1056A00080E290E0B3010E94892BEA94EE20C1F7DA
:1056B00043CEF30166817781CB012B96CDBFDEBF50
:1056C000CF91DF911F910F91FF90EF90DF90CF90DE
:1056D000BF90AF909F908F907F906F905F904F9012
:1056E0003F902F900895FC0105906150704001108B
:1056F000D8F7809590958E0F9F1F0895FC016150FB
:10570000704001900110D8F7809590958E0F9F1FE3
:1057100008950F931F93CF93DF938C01EB018B813F
:1057200081FF1BC082FF0DC02E813F818C819D8136
:105730002817390764F4E881F9810193E883F98334
:1057400006C0E885F985802F1995892B31F48E8163
:105750009F8101968E839F8302C00FEF1FEFC801C8
:10576000DF91CF911F910F910895FA01AA27283058
:1057700051F1203181F1E8946F936E7F6E5F7F4F1E
:105780008F4F9F4FAF4FB1E03ED0B4E03CD0670F9A
:10579000781F891F9A1FA11D680F791F8A1F911DED
:1057A000A11D6A0F711D811D911DA11D20D009F43D
:1057B00068943F912AE0269F11243019305D31937F
:1057C000DEF6CF010895462F4770405D4193B3E068
:1057D0000FD0C9F7F6CF462F4F70405D4A3318F00F
:1057E000495D31FD4052419302D0A9F7EACFB4E0C0
:1057F000A6959795879577956795BA95C9F7009778
:105800006105710508959B01AC010A2E0694579518
:10581000479537952795BA95C9F7620F731F841F6F
:0A582000951FA01D0895F894FFCF16
:10582A005345514E554D0030003100256C75002509
:10583A002E3278252E3278252E3278252E3278256A
:10584A002E3278252E3278002C003C002F003E3B69
:10585A0000DC0563743D34300063743D30006374CA
:10586A003D353000014E1C8D263320012919992619
:10587A00392003D01B9926000001A21BA726392034
:10588A0001741BB826392001D019C72639200118FE
:10589A001BD3263920039D1AD3263920033D1AE04B
:1058AA00260000017419F02639200146190027390B
:1058BA002001EA1813273E200000000000000030F3
:1058CA0000000000000000000000000000000000CE
:1058DA0000000000000000000000000000000000BE
:1058EA0000000000000000000000000000000000AE
:1058FA00000000000000000000000000000000009E
:105E9A000000000000000000000000002E77656C82
:105EAA006C2D6B6E6F776E00636F72650002007CFB
:105EBA002688266C696768740001009326000062D0
:105ECA006172726965720001009F26000063617247
:105EDA002D646574656374000100AD260000736566
:105EEA007175656E6365000100BE260000636C6F04
:105EFA00636B000100CD260000756E6C6F636B004A
:105F0A000100D92600007061726B696E674944000E
:105F1A000100E6260000617661696C61626C6500C9
:105F2A000100F62600007061726B696E675F64613A
:105F3A0074610001000627000022617661696C61C4
:105F4A00626C65223A20312C20227061726B696E74
:105F5A00675F6475726174696F6E223A20302C2013
:105F6A00227061726B696E675F73696E6365223A4C
:105F7A0020302C20226576223A5B00226176616904
:105F8A006C61626C65223A20302C20227061726B3F
:105F9A00696E675F6475726174696F6E223A202553
:105FAA006C752C20227061726B696E675F73696E03
:105FBA006365223A20256C752C20226576223A5B8D
:105FCA000022617661696C61626C65223A20302C2C
:105FDA0020227061726B696E675F647572617469A1
:105FEA006F6E223A20302C20227061726B696E67C4
:105FFA005F73696E6365223A20302C20226576220F
:10600A003A5B007B22696E646578223A2025752CFA
:10601A002022737461727454696D65223A20256C6A
:10602A00752C202273746F7054696D65223A20258D
:10603A006C752C20224944223A20256C757D00007B
:00000001FF
